{
  "contractName": "Instructors",
  "abi": [
    {
      "constant": false,
      "inputs": [
        {
          "name": "_address",
          "type": "address"
        },
        {
          "name": "_name",
          "type": "string"
        }
      ],
      "name": "setInstrutor",
      "outputs": [],
      "payable": false,
      "stateMutability": "nonpayable",
      "type": "function"
    },
    {
      "constant": true,
      "inputs": [
        {
          "name": "_address",
          "type": "address"
        }
      ],
      "name": "getInstructor",
      "outputs": [
        {
          "name": "name",
          "type": "string"
        }
      ],
      "payable": false,
      "stateMutability": "view",
      "type": "function"
    },
    {
      "constant": true,
      "inputs": [],
      "name": "getInstructorCodes",
      "outputs": [
        {
          "name": "",
          "type": "address[]"
        }
      ],
      "payable": false,
      "stateMutability": "view",
      "type": "function"
    },
    {
      "constant": false,
      "inputs": [],
      "name": "setInitialData",
      "outputs": [],
      "payable": false,
      "stateMutability": "nonpayable",
      "type": "function"
    }
  ],
  "bytecode": "0x606060405273627306090abab3a6e1400e9345bc60c78a8bef57600260006101000a81548173ffffffffffffffffffffffffffffffffffffffff021916908373ffffffffffffffffffffffffffffffffffffffff16021790555073f17f52151ebef6c7334fad080c5704d77216b732600360006101000a81548173ffffffffffffffffffffffffffffffffffffffff021916908373ffffffffffffffffffffffffffffffffffffffff16021790555034156100b957600080fd5b61074b806100c86000396000f300606060405260043610610062576000357c0100000000000000000000000000000000000000000000000000000000900463ffffffff1680630429e3721461006757806360fcd21814610119578063a4027aa814610183578063d72ab257146101ff575b600080fd5b341561007257600080fd5b61009e600480803573ffffffffffffffffffffffffffffffffffffffff16906020019091905050610214565b6040518080602001828103825283818151815260200191508051906020019080838360005b838110156100de5780820151818401526020810190506100c3565b50505050905090810190601f16801561010b5780820380516001836020036101000a031916815260200191505b509250505060405180910390f35b341561012457600080fd5b61012c610374565b6040518080602001828103825283818151815260200191508051906020019060200280838360005b8381101561016f578082015181840152602081019050610154565b505050509050019250505060405180910390f35b341561018e57600080fd5b6101fd600480803573ffffffffffffffffffffffffffffffffffffffff1690602001909190803590602001908201803590602001908080601f01602080910402602001604051908101604052809392919081815260200183838082843782019150505050505091905050610408565b005b341561020a57600080fd5b61021261050e565b005b61021c6105dc565b6102246105f0565b6000808473ffffffffffffffffffffffffffffffffffffffff1673ffffffffffffffffffffffffffffffffffffffff1681526020019081526020016000206040805190810160405290816000820160009054906101000a900473ffffffffffffffffffffffffffffffffffffffff1673ffffffffffffffffffffffffffffffffffffffff1673ffffffffffffffffffffffffffffffffffffffff168152602001600182018054600181600116156101000203166002900480601f01602080910402602001604051908101604052809291908181526020018280546001816001161561010002031660029004801561035c5780601f106103315761010080835404028352916020019161035c565b820191906000526020600020905b81548152906001019060200180831161033f57829003601f168201915b50505050508152505090508060200151915050919050565b61037c610626565b60018054806020026020016040519081016040528092919081815260200182805480156103fe57602002820191906000526020600020905b8160009054906101000a900473ffffffffffffffffffffffffffffffffffffffff1673ffffffffffffffffffffffffffffffffffffffff16815260200190600101908083116103b4575b5050505050905090565b60008060008473ffffffffffffffffffffffffffffffffffffffff1673ffffffffffffffffffffffffffffffffffffffff1681526020019081526020016000209050828160000160006101000a81548173ffffffffffffffffffffffffffffffffffffffff021916908373ffffffffffffffffffffffffffffffffffffffff160217905550818160010190805190602001906104a592919061063a565b50600180548060010182816104ba91906106ba565b9160005260206000209001600085909190916101000a81548173ffffffffffffffffffffffffffffffffffffffff021916908373ffffffffffffffffffffffffffffffffffffffff16021790555050505050565b610516610518565b565b610579600260009054906101000a900473ffffffffffffffffffffffffffffffffffffffff166040805190810160405280600881526020017f4d722e536d697468000000000000000000000000000000000000000000000000815250610408565b6105da600360009054906101000a900473ffffffffffffffffffffffffffffffffffffffff166040805190810160405280600981526020017f4d72732e536d6974680000000000000000000000000000000000000000000000815250610408565b565b602060405190810160405280600081525090565b6040805190810160405280600073ffffffffffffffffffffffffffffffffffffffff1681526020016106206106e6565b81525090565b602060405190810160405280600081525090565b828054600181600116156101000203166002900490600052602060002090601f016020900481019282601f1061067b57805160ff19168380011785556106a9565b828001600101855582156106a9579182015b828111156106a857825182559160200191906001019061068d565b5b5090506106b691906106fa565b5090565b8154818355818115116106e1578183600052602060002091820191016106e091906106fa565b5b505050565b602060405190810160405280600081525090565b61071c91905b80821115610718576000816000905550600101610700565b5090565b905600a165627a7a723058209a2171c552b3cb176b92e9eb5d97286816264eb730776964700b1c47adc3377a0029",
  "source": "pragma solidity  ^0.4.18;\n\ncontract Instructors {\n\n    mapping (address => Instructor) instructorMap;\n    address[] instructorCodes;\n\n    struct Instructor {\n        address code;\n        string name;\n    }\n\n    function setInstrutor(address _address, string _name) public {\n        Instructor storage instructor = instructorMap[_address];\n        instructor.code = _address;\n        instructor.name = _name;\n        instructorCodes.push(_address);\n    }\n    function getInstructor(address _address) view public returns(string name) {\n        Instructor memory instructor = instructorMap[_address];\n        return(instructor.name);\n    }\n    function getInstructorCodes() view public returns(address[]) {\n        return instructorCodes;\n    }\n\n\n\n    //test\n    address instructorCode1 = 0x627306090abab3a6e1400e9345bc60c78a8bef57;\n    address instructorCode2 = 0xf17f52151ebef6c7334fad080c5704d77216b732;\n\n    function setInitialData() public {\n        setInstrutors();\n    }\n\n    function setInstrutors() internal {\n        setInstrutor(instructorCode1, \"Mr.Smith\");\n        setInstrutor(instructorCode2, \"Mrs.Smith\");\n    }\n\n}\n",
  "sourcePath": "/home/jana/projects/Blockchain/truffle/contracts/Instructors.sol",
  "compiler": {
    "name": "solc",
    "version": "0.4.19+commit.c4cbbb05.Emscripten.clang"
  },
  "schemaVersion": "2.0.0",
  "updatedAt": "2018-03-11T09:09:05.939Z"
}